:1000000014C019C018C017C016C015C014C021C034
:1000100012C011C010C00FC00EC00DC00CC00BC06C
:100020000AC009C008C007C006C011241FBECFED1A
:10003000CDBF2BD04EC0E4CF92B989B988E18AB93F
:10004000579A599A86E383B908955D9BFECF8CB980
:1000500008951F920F920FB60F9211242F938F9332
:100060009F938FEF88BB2FEF84E39CE0215080406B
:100070009040E1F700C0000018BA9F918F912F9136
:100080000F900FBE0F901F90189583E090E0D4DF83
:10009000789488E5DADF89E5D8DF89E4D6DF8FE573
:1000A000D4DF83E7D2DF8FE6D0DF83E5CEDF85E4E0
:1000B000CCDF88E4CADF8DE0C8DF8AE0C6DF2FEF3F
:1000C00084E39CE0215080409040E1F700C00000B4
:0600D000E0CFF894FFCF21
:00000001FF
