S00B000050574D2E7372656325
S11300000C942A000C9434000C9434000C943400A6
S11300100C9434000C9434000C9434000C9434008C
S11300200C9434000C9434000C9434000C9434007C
S11300300C9434000C9434000C9434000C9434006C
S11300400C9434000C9434000C9434000C9434005C
S11300500C94340011241FBECFE5D4E0DEBFCDBF25
S11300600E9445000C946A000C9400008FEF81BB41
S113007082BB08958FB581688FBD8EB58C608EBDAF
S11300801DBC1CBC1BBC1ABC08950E9436000E94F7
S11300903A002FEF30E08AB59BB501969BBD8ABD2F
S11300A08FE891E00197F1F700C000002150310979
S11300B091F72FEF30E08AB59BB501979BBD8ABDC0
S11300C08FE891E00197F1F700C000002150310959
S10B00D091F7DFCFF894FFCF94
S9030000FC
