:100000000C942A000C9434000C9434000C943400AA
:100010000C9434000C9434000C9434000C94340090
:100020000C9434000C9434000C9434000C94340080
:100030000C9434000C9434000C9434000C94340070
:100040000C9434000C9434000C9434000C94340060
:100050000C94340011241FBECFE5D4E0DEBFCDBF29
:100060000E9436000C9443000C94000081EB87BB87
:100070008FE488BB80E58DB981E88FB9779BFECF8F
:0A008000C49AC498FFCFF894FFCF94
:00000001FF
