S015000066697273745F70726F6A6563742E7372656391
S113000014C019C018C017C025C015C014C013C02F
S113001012C011C010C00FC00EC00DC00CC00BC068
S11300200AC009C008C007C006C011241FBECFED16
S1130030CDBF22D027C0E4CF8AE78BBD82E18ABD41
S11300408EB588608EBD89B7806489BF8EB58460A3
S11300508EBD08951F920F920FB60F9211248F93A5
S1130060809B02C012BA02C08FE782BB8F910F90AF
S11300700FBE0F901F901895DFDF87E081BB82BB16
S10B00807894FFCFF894FFCF40
S9030000FC
