:100000000C942A000C9434000C9434000C943400AA
:100010000C9434000C9434000C9434000C94340090
:100020000C9434000C9434000C9434000C94340080
:100030000C9434000C9434000C9434000C94340070
:100040000C9434000C9434000C9434000C94340060
:100050000C94340011241FBECFE5D4E0DEBFCDBF29
:100060000E9443000C9449000C9400001DBC1CBC71
:100070008FB582688FBD8EB58C618EBD82E087BDE5
:1000800081E786BD08950E9436001BBC8EE28ABDC2
:06009000FFCFF894FFCF42
:00000001FF
