S015000050574D5F6F6E5F54494D4552322E73726563CD
S11300000C942A000C9434000C9434000C943400A6
S11300100C9434000C9434000C9434000C9434008C
S11300200C9434000C9434000C9434000C9434007C
S11300300C9434000C9434000C9434000C9434006C
S11300400C9434000C9434000C9434000C9434005C
S11300500C94340011241FBECFE5D4E0DEBFCDBF25
S11300600E943D000C9445000C94000012BC8EE6E6
S113007085BD14BC8FEF83BD08958FEF81BB82BB18
S11100800E9436008FE983BDFFCFF894FFCFB6
S9030000FC
