:100000000C942A000C9434000C9434000C943400AA
:100010000C9434000C9434000C9434000C94340090
:100020000C9434000C9434000C9434000C94340080
:100030000C9434000C9434000C9444000C94340060
:100040000C9434000C9434000C9434000C94340060
:100050000C94340011241FBECFE5D4E0DEBFCDBF29
:100060000E9457000C9468000C94000080E687B949
:100070008FEA86B90895369A089582E88FBD8CE19B
:100080008EBD1DBC1CBC08951F920F920FB60F921F
:1000900011248F939F9385B1869590E09BBD8ABD77
:1000A0009F918F910F900FBE0F901F90189588E32E
:1000B00081BB80E182BB0E943D000E9436007894A3
:1000C0000E943B0017BC8FEF86BD1BBC1ABCFFCF44
:0400D000F894FFCFD2
:00000001FF
