:1000000014C019C018C017C016C015C014C013C042
:1000100012C011C010C00FC00EC00DC00CC00BC06C
:100020000AC009C008C007C006C011241FBECFED1A
:10003000CDBF6BD07DC0E4CF18BA8FEF87BB0895DA
:10004000C39A92E49A95F1F700C098B39F7098BB59
:1000500098B38295807F892B88BBC39882E48A9568
:10006000F1F700C00895CF93C82F672B11F0C29A03
:1000700001C0C2988C2F82958F70E2DF8C2FE0DF59
:10008000CF91089587E99AE30197F1F700C0000046
:1000900083E0D6DF8FE99FE00197F1F700C0000011
:1000A00083E0CEDF95E89A95F1F7000083E0C8DFA2
:1000B00087EE93E00197F1F700C0000082E0C0DF17
:1000C00087EE93E00197F1F700C0000060E070E078
:1000D00088E2C9DF87EE93E00197F1F700C00000E6
:1000E00060E070E08EE0BFDF87EE93E00197F1F70C
:1000F00000C0000060E070E086E0B5DF87EE93E0CE
:100100000197F1F700C00000089596DFBBDF60E0C3
:1001100070E088ECA8DF61E070E08DE6A4DF60E0CD
:1001200070E084E8A0DF61E070E081E69CDFFFCF53
:04013000F894FFCF71
:00000001FF
